{
  "contractName": "BaseTransaction",
  "abi": [
    {
      "inputs": [],
      "payable": false,
      "stateMutability": "nonpayable",
      "type": "constructor"
    },
    {
      "constant": false,
      "inputs": [
        {
          "internalType": "address",
          "name": "_to",
          "type": "address"
        }
      ],
      "name": "sendMessage",
      "outputs": [],
      "payable": false,
      "stateMutability": "nonpayable",
      "type": "function"
    },
    {
      "constant": false,
      "inputs": [],
      "name": "voidContract",
      "outputs": [],
      "payable": false,
      "stateMutability": "nonpayable",
      "type": "function"
    }
  ],
  "bytecode": "0x608060405234801561001057600080fd5b50336000806101000a81548173ffffffffffffffffffffffffffffffffffffffff021916908373ffffffffffffffffffffffffffffffffffffffff16021790555061027f806100606000396000f3fe608060405234801561001057600080fd5b50600436106100365760003560e01c80633b7c4b931461003b57806344dc24ca1461007f575b600080fd5b61007d6004803603602081101561005157600080fd5b81019080803573ffffffffffffffffffffffffffffffffffffffff169060200190929190505050610089565b005b61008761014e565b005b6000809054906101000a900473ffffffffffffffffffffffffffffffffffffffff1673ffffffffffffffffffffffffffffffffffffffff163373ffffffffffffffffffffffffffffffffffffffff161461014b576040517f08c379a00000000000000000000000000000000000000000000000000000000081526004018080602001828103825260098152602001807f4e6f74204f776e6572000000000000000000000000000000000000000000000081525060200191505060405180910390fd5b50565b6000809054906101000a900473ffffffffffffffffffffffffffffffffffffffff1673ffffffffffffffffffffffffffffffffffffffff163373ffffffffffffffffffffffffffffffffffffffff1614610210576040517f08c379a00000000000000000000000000000000000000000000000000000000081526004018080602001828103825260098152602001807f4e6f74204f776e6572000000000000000000000000000000000000000000000081525060200191505060405180910390fd5b6000809054906101000a900473ffffffffffffffffffffffffffffffffffffffff1673ffffffffffffffffffffffffffffffffffffffff16fffea265627a7a72315820557345b89daa4f1baf972c4068ac686f4bce6af0791a9833e9dc41f94994bce264736f6c63430005100032",
  "source": "// SPDX-License-Identifier: MIT\npragma solidity >=0.4.21 <0.9.0;\n\ncontract BaseTransaction {\n  enum Conditions {\n    IMMEDIATE,\n    DELAYED_TRANSFER,\n    COSIGNER_INITIATED,\n    CUSTOM\n  }\n\n  address payable private owner; \n\n  constructor () public {\n    owner = msg.sender;\n  }\n\n  modifier byOwner() {\n    require(msg.sender == owner, 'Not Owner');\n    _;\n  }\n\n  function sendMessage(address _to) public byOwner {\n    // todo implement this\n  }\n\n  function voidContract() public byOwner {\n    // delete the contract and send remaining balance back to owner\n    selfdestruct(owner);\n  }\n}",
  "sourcePath": "/Users/williamhuang/Truffle_Projects/6883_Project/contracts/BaseTransaction.sol",
  "compiler": {
    "name": "solc",
    "version": "0.5.16+commit.9c3226ce.Emscripten.clang"
  },
  "schemaVersion": "3.4.6",
  "updatedAt": "2022-04-10T03:33:39.686Z",
  "devdoc": {
    "methods": {}
  },
  "userdoc": {
    "methods": {}
  }
}