{
  "contractName": "BaseTransaction",
  "abi": [
    {
      "inputs": [],
      "payable": false,
      "stateMutability": "nonpayable",
      "type": "constructor"
    },
    {
      "constant": false,
      "inputs": [
        {
          "internalType": "address",
          "name": "_to",
          "type": "address"
        }
      ],
      "name": "sendMessage",
      "outputs": [],
      "payable": false,
      "stateMutability": "nonpayable",
      "type": "function"
    },
    {
      "constant": false,
      "inputs": [],
      "name": "voidContract",
      "outputs": [],
      "payable": false,
      "stateMutability": "nonpayable",
      "type": "function"
    }
  ],
  "bytecode": "0x608060405234801561001057600080fd5b50336000806101000a81548173ffffffffffffffffffffffffffffffffffffffff021916908373ffffffffffffffffffffffffffffffffffffffff16021790555061027f806100606000396000f3fe608060405234801561001057600080fd5b50600436106100365760003560e01c80633b7c4b931461003b57806344dc24ca1461007f575b600080fd5b61007d6004803603602081101561005157600080fd5b81019080803573ffffffffffffffffffffffffffffffffffffffff169060200190929190505050610089565b005b61008761014e565b005b6000809054906101000a900473ffffffffffffffffffffffffffffffffffffffff1673ffffffffffffffffffffffffffffffffffffffff163373ffffffffffffffffffffffffffffffffffffffff161461014b576040517f08c379a00000000000000000000000000000000000000000000000000000000081526004018080602001828103825260098152602001807f4e6f74204f776e6572000000000000000000000000000000000000000000000081525060200191505060405180910390fd5b50565b6000809054906101000a900473ffffffffffffffffffffffffffffffffffffffff1673ffffffffffffffffffffffffffffffffffffffff163373ffffffffffffffffffffffffffffffffffffffff1614610210576040517f08c379a00000000000000000000000000000000000000000000000000000000081526004018080602001828103825260098152602001807f4e6f74204f776e6572000000000000000000000000000000000000000000000081525060200191505060405180910390fd5b6000809054906101000a900473ffffffffffffffffffffffffffffffffffffffff1673ffffffffffffffffffffffffffffffffffffffff16fffea265627a7a7231582066c28c9e2005072eb40c10c5e27157bf221dc09dc3c539ad4e06be9b5c054f5a64736f6c63430005100032",
  "source": "// SPDX-License-Identifier: MIT\r\npragma solidity >=0.4.21 <0.9.0;\r\n\r\ncontract BaseTransaction {\r\n  enum Conditions {\r\n    IMMEDIATE,\r\n    DELAYED_TRANSFER,\r\n    COSIGNER_INITIATED,\r\n    CUSTOM\r\n  }\r\n\r\n  address payable private owner; \r\n\r\n  constructor () public {\r\n    owner = msg.sender;\r\n  }\r\n\r\n  modifier byOwner() {\r\n    require(msg.sender == owner, 'Not Owner');\r\n    _;\r\n  }\r\n\r\n  function sendMessage(address _to) public byOwner {\r\n    // todo implement this\r\n  }\r\n\r\n  function voidContract() public byOwner {\r\n    // delete the contract and send remaining balance back to owner\r\n    selfdestruct(owner);\r\n  }\r\n}",
  "sourcePath": "C:\\COMS6883\\Solidity_Project\\6883_Project\\contracts\\BaseTransaction.sol",
  "compiler": {
    "name": "solc",
    "version": "0.5.16+commit.9c3226ce.Emscripten.clang"
  },
  "schemaVersion": "3.4.6",
  "updatedAt": "2022-04-12T15:07:08.974Z",
  "devdoc": {
    "methods": {}
  },
  "userdoc": {
    "methods": {}
  }
}