{
  "contractName": "BaseTransaction",
  "abi": [
    {
      "inputs": [],
      "payable": false,
      "stateMutability": "nonpayable",
      "type": "constructor"
    },
    {
      "anonymous": false,
      "inputs": [
        {
          "indexed": false,
          "internalType": "string",
          "name": "_s",
          "type": "string"
        },
        {
          "indexed": false,
          "internalType": "address",
          "name": "_a",
          "type": "address"
        }
      ],
      "name": "AnnounceAddress",
      "type": "event"
    },
    {
      "anonymous": false,
      "inputs": [
        {
          "indexed": false,
          "internalType": "string",
          "name": "_s",
          "type": "string"
        },
        {
          "indexed": false,
          "internalType": "uint256",
          "name": "_n",
          "type": "uint256"
        }
      ],
      "name": "AnnounceNumber",
      "type": "event"
    },
    {
      "constant": false,
      "inputs": [],
      "name": "voidContract",
      "outputs": [],
      "payable": false,
      "stateMutability": "nonpayable",
      "type": "function"
    }
  ],
  "bytecode": "0x608060405234801561001057600080fd5b50336000806101000a81548173ffffffffffffffffffffffffffffffffffffffff021916908373ffffffffffffffffffffffffffffffffffffffff16021790555061016b806100606000396000f3fe608060405234801561001057600080fd5b506004361061002b5760003560e01c806344dc24ca14610030575b600080fd5b61003861003a565b005b6000809054906101000a900473ffffffffffffffffffffffffffffffffffffffff1673ffffffffffffffffffffffffffffffffffffffff163373ffffffffffffffffffffffffffffffffffffffff16146100fc576040517f08c379a00000000000000000000000000000000000000000000000000000000081526004018080602001828103825260098152602001807f4e6f74204f776e6572000000000000000000000000000000000000000000000081525060200191505060405180910390fd5b6000809054906101000a900473ffffffffffffffffffffffffffffffffffffffff1673ffffffffffffffffffffffffffffffffffffffff16fffea265627a7a7231582036ed4585cfaa111611a722715002761aa891d497276b8d26a838f5c2601c5a7064736f6c63430005100032",
  "source": "// SPDX-License-Identifier: MIT\npragma solidity >=0.4.21 <0.9.0;\n\ncontract BaseTransaction {\n  enum Conditions {\n    DELAYED_TRANSFER,\n    COSIGNER_INITIATED,\n    CUSTOM\n  }\n\n  address payable private owner; \n\n  constructor () public {\n    owner = msg.sender;\n  }\n\n  event AnnounceAddress(string _s, address _a);\n  event AnnounceNumber(string _s, uint _n);\n\n  modifier byOwner() {\n    require(msg.sender == owner, 'Not Owner');\n    _;\n  }\n\n  function voidContract() public byOwner {\n    // delete the contract and send remaining balance back to owner\n    selfdestruct(owner);\n  }\n}",
  "sourcePath": "/Users/williamhuang/Truffle_Projects/6883_Project/contracts/BaseTransaction.sol",
  "compiler": {
    "name": "solc",
    "version": "0.5.16+commit.9c3226ce.Emscripten.clang"
  },
  "schemaVersion": "3.4.6",
  "updatedAt": "2022-04-17T04:56:36.911Z",
  "devdoc": {
    "methods": {}
  },
  "userdoc": {
    "methods": {}
  }
}