{
  "contractName": "SendEther",
  "abi": [
    {
      "inputs": [
        {
          "internalType": "enum BaseTransaction.Conditions",
          "name": "_cond",
          "type": "uint8"
        },
        {
          "internalType": "address payable",
          "name": "_recip",
          "type": "address"
        },
        {
          "internalType": "address",
          "name": "_executor",
          "type": "address"
        },
        {
          "internalType": "uint16",
          "name": "_delayLength",
          "type": "uint16"
        }
      ],
      "payable": false,
      "stateMutability": "nonpayable",
      "type": "constructor"
    },
    {
      "constant": false,
      "inputs": [
        {
          "internalType": "address",
          "name": "_to",
          "type": "address"
        }
      ],
      "name": "sendMessage",
      "outputs": [],
      "payable": false,
      "stateMutability": "nonpayable",
      "type": "function"
    },
    {
      "constant": false,
      "inputs": [],
      "name": "voidContract",
      "outputs": [],
      "payable": false,
      "stateMutability": "nonpayable",
      "type": "function"
    },
    {
      "constant": false,
      "inputs": [
        {
          "internalType": "address payable",
          "name": "_to",
          "type": "address"
        }
      ],
      "name": "sendPayment",
      "outputs": [],
      "payable": true,
      "stateMutability": "payable",
      "type": "function"
    },
    {
      "constant": false,
      "inputs": [],
      "name": "inherit",
      "outputs": [],
      "payable": false,
      "stateMutability": "nonpayable",
      "type": "function"
    },
    {
      "constant": false,
      "inputs": [],
      "name": "execute",
      "outputs": [],
      "payable": false,
      "stateMutability": "nonpayable",
      "type": "function"
    }
  ],
  "bytecode": "0x608060405234801561001057600080fd5b5060405161094b38038061094b8339818101604052608081101561003357600080fd5b8101908080519060200190929190805190602001909291908051906020019092919080519060200190929190505050336000806101000a81548173ffffffffffffffffffffffffffffffffffffffff021916908373ffffffffffffffffffffffffffffffffffffffff1602179055506000600260166101000a81548160ff02191690831515021790555082600160006101000a81548173ffffffffffffffffffffffffffffffffffffffff021916908373ffffffffffffffffffffffffffffffffffffffff16021790555081600260006101000a81548173ffffffffffffffffffffffffffffffffffffffff021916908373ffffffffffffffffffffffffffffffffffffffff16021790555080600260146101000a81548161ffff021916908361ffff1602179055506000600381111561016957fe5b84600381111561017557fe5b14156101cc576101ac600160009054906101000a900473ffffffffffffffffffffffffffffffffffffffff1661022060201b60201c565b6001600260166101000a81548160ff021916908315150217905550610217565b600160038111156101d957fe5b8460038111156101e557fe5b14156101f057610216565b600260038111156101fd57fe5b84600381111561020957fe5b141561021457610215565b5b5b5b505050506102e5565b6000809054906101000a900473ffffffffffffffffffffffffffffffffffffffff1673ffffffffffffffffffffffffffffffffffffffff163373ffffffffffffffffffffffffffffffffffffffff16146102e2576040517f08c379a00000000000000000000000000000000000000000000000000000000081526004018080602001828103825260098152602001807f4e6f74204f776e6572000000000000000000000000000000000000000000000081525060200191505060405180910390fd5b50565b610657806102f46000396000f3fe60806040526004361061004a5760003560e01c80632b445d781461004f5780633b7c4b931461006657806344dc24ca146100b757806361461954146100ce5780638a7644a8146100e5575b600080fd5b34801561005b57600080fd5b50610064610129565b005b34801561007257600080fd5b506100b56004803603602081101561008957600080fd5b81019080803573ffffffffffffffffffffffffffffffffffffffff16906020019092919050505061027c565b005b3480156100c357600080fd5b506100cc610341565b005b3480156100da57600080fd5b506100e361043d565b005b610127600480360360208110156100fb57600080fd5b81019080803573ffffffffffffffffffffffffffffffffffffffff16906020019092919050505061055d565b005b600160009054906101000a900473ffffffffffffffffffffffffffffffffffffffff1673ffffffffffffffffffffffffffffffffffffffff163373ffffffffffffffffffffffffffffffffffffffff16146101ec576040517f08c379a00000000000000000000000000000000000000000000000000000000081526004018080602001828103825260118152602001807f4e6f742074686520526563697069656e7400000000000000000000000000000081525060200191505060405180910390fd5b600260169054906101000a900460ff1661027a576000614a2462015180428161021157fe5b04039050600260149054906101000a900461ffff1661ffff168111156102785761025c600160009054906101000a900473ffffffffffffffffffffffffffffffffffffffff1661055d565b6001600260166101000a81548160ff0219169083151502179055505b505b565b6000809054906101000a900473ffffffffffffffffffffffffffffffffffffffff1673ffffffffffffffffffffffffffffffffffffffff163373ffffffffffffffffffffffffffffffffffffffff161461033e576040517f08c379a00000000000000000000000000000000000000000000000000000000081526004018080602001828103825260098152602001807f4e6f74204f776e6572000000000000000000000000000000000000000000000081525060200191505060405180910390fd5b50565b6000809054906101000a900473ffffffffffffffffffffffffffffffffffffffff1673ffffffffffffffffffffffffffffffffffffffff163373ffffffffffffffffffffffffffffffffffffffff1614610403576040517f08c379a00000000000000000000000000000000000000000000000000000000081526004018080602001828103825260098152602001807f4e6f74204f776e6572000000000000000000000000000000000000000000000081525060200191505060405180910390fd5b6000809054906101000a900473ffffffffffffffffffffffffffffffffffffffff1673ffffffffffffffffffffffffffffffffffffffff16ff5b600260009054906101000a900473ffffffffffffffffffffffffffffffffffffffff1673ffffffffffffffffffffffffffffffffffffffff163373ffffffffffffffffffffffffffffffffffffffff1614610500576040517f08c379a00000000000000000000000000000000000000000000000000000000081526004018080602001828103825260108152602001807f4e6f7420746865204578656375746f720000000000000000000000000000000081525060200191505060405180910390fd5b600260169054906101000a900460ff1661055b5761053f600160009054906101000a900473ffffffffffffffffffffffffffffffffffffffff1661055d565b6001600260166101000a81548160ff0219169083151502179055505b565b6000809054906101000a900473ffffffffffffffffffffffffffffffffffffffff1673ffffffffffffffffffffffffffffffffffffffff163373ffffffffffffffffffffffffffffffffffffffff161461061f576040517f08c379a00000000000000000000000000000000000000000000000000000000081526004018080602001828103825260098152602001807f4e6f74204f776e6572000000000000000000000000000000000000000000000081525060200191505060405180910390fd5b5056fea265627a7a72315820dd051573ab72d21acddd29a593558766932575ee5025e035b7e83f1a7a4f7d1964736f6c63430005100032",
  "source": "// SPDX-License-Identifier: MIT\npragma solidity >=0.4.21 <0.9.0;\nimport \"./BaseTransaction.sol\";\n\ncontract SendEther is BaseTransaction {\n  address payable private recipient;\n  address private executor;\n  uint16  private delayedDays; // unit: days since 2020, max = 65535 days\n  bool private isExercised; // set to true when the will is exercised\n\n  constructor (Conditions _cond,\n              address payable _recip,\n              address  _executor,\n              uint16 _delayLength) public {\n    isExercised = false;\n    recipient = _recip;\n    executor = _executor;\n    delayedDays = _delayLength;\n\n    if (_cond == Conditions.IMMEDIATE){\n      sendPayment(recipient);\n      isExercised = true;\n    } else if (_cond == Conditions.DELAYED_TRANSFER){\n      // todo send a message to the recipient to notify this \n      // delayed contract has been put in place\n    } else if (_cond == Conditions.COSIGNER_INITIATED){\n      // todo send a message to the executor to notify\n      // this contract is in place\n    } else {\n      // not supported for now\n    }\n  }\n\n  modifier byRecipient() {\n    require(msg.sender == recipient, 'Not the Recipient');\n    _;\n  }\n\n  modifier byExecutor() {\n    require(msg.sender == executor, 'Not the Executor');\n    _;\n  }\n\n  function sendPayment(address payable _to) public payable byOwner {\n    // todo implement this\n    // (bool sent, bytes memory data) = _to.call{value: msg.value}(\"\");\n    // require(sent, \"Failed to send Ether\");\n  }\n\n  function inherit() public byRecipient {\n    if (!isExercised) {\n      // find the differences in days, make sure the latest block's \n      // time stamp is greater than the delayed days\n      uint256 remainingDays = block.timestamp / 86400 - 18980;\n      if (remainingDays > delayedDays){\n        sendPayment(recipient);\n        isExercised = true;\n      }\n    }\n  }\n\n  function execute() public byExecutor {\n    if (!isExercised) {\n      sendPayment(recipient);\n      isExercised = true;\n    }\n  }\n}\n",
  "sourcePath": "/Users/williamhuang/Truffle_Projects/6883_Project/contracts/SendEther.sol",
  "compiler": {
    "name": "solc",
    "version": "0.5.16+commit.9c3226ce.Emscripten.clang"
  },
  "schemaVersion": "3.4.6",
  "updatedAt": "2022-04-10T03:33:39.689Z",
  "devdoc": {
    "methods": {}
  },
  "userdoc": {
    "methods": {}
  }
}