{
  "contractName": "SendEther",
  "abi": [
    {
      "inputs": [
        {
          "internalType": "enum BaseTransaction.Conditions",
          "name": "_cond",
          "type": "uint8"
        },
        {
          "internalType": "address payable",
          "name": "_recip",
          "type": "address"
        },
        {
          "internalType": "address",
          "name": "_executor",
          "type": "address"
        },
        {
          "internalType": "uint16",
          "name": "_delayLength",
          "type": "uint16"
        }
      ],
      "payable": true,
      "stateMutability": "payable",
      "type": "constructor"
    },
    {
      "anonymous": false,
      "inputs": [
        {
          "indexed": false,
          "internalType": "string",
          "name": "_s",
          "type": "string"
        },
        {
          "indexed": false,
          "internalType": "address",
          "name": "_a",
          "type": "address"
        }
      ],
      "name": "AnnounceAddress",
      "type": "event"
    },
    {
      "anonymous": false,
      "inputs": [
        {
          "indexed": false,
          "internalType": "string",
          "name": "_s",
          "type": "string"
        },
        {
          "indexed": false,
          "internalType": "uint256",
          "name": "_n",
          "type": "uint256"
        }
      ],
      "name": "AnnounceNumber",
      "type": "event"
    },
    {
      "constant": false,
      "inputs": [],
      "name": "voidContract",
      "outputs": [],
      "payable": false,
      "stateMutability": "nonpayable",
      "type": "function"
    },
    {
      "constant": false,
      "inputs": [],
      "name": "inherit",
      "outputs": [],
      "payable": true,
      "stateMutability": "payable",
      "type": "function"
    },
    {
      "constant": false,
      "inputs": [],
      "name": "execute",
      "outputs": [],
      "payable": true,
      "stateMutability": "payable",
      "type": "function"
    }
  ],
  "bytecode": "0x608060405260405161096e38038061096e8339818101604052608081101561002657600080fd5b8101908080519060200190929190805190602001909291908051906020019092919080519060200190929190505050336000806101000a81548173ffffffffffffffffffffffffffffffffffffffff021916908373ffffffffffffffffffffffffffffffffffffffff1602179055506000600460026101000a81548160ff02191690831515021790555083600260146101000a81548160ff021916908360028111156100ce57fe5b021790555082600160006101000a81548173ffffffffffffffffffffffffffffffffffffffff021916908373ffffffffffffffffffffffffffffffffffffffff16021790555081600260006101000a81548173ffffffffffffffffffffffffffffffffffffffff021916908373ffffffffffffffffffffffffffffffffffffffff16021790555080600460006101000a81548161ffff021916908361ffff160217905550346003819055507f5c859e9eb97e487693bfa6e5a10033407b04fac2f6df9088da45487724a13a72600160009054906101000a900473ffffffffffffffffffffffffffffffffffffffff1660405180806020018373ffffffffffffffffffffffffffffffffffffffff1673ffffffffffffffffffffffffffffffffffffffff168152602001828103825260178152602001807f412077696c6c20776173206372656174656420666f72200000000000000000008152506020019250505060405180910390a16000600281111561024457fe5b600260149054906101000a900460ff16600281111561025f57fe5b14156102ee577fda726dde3ed85439fab436017187e417a06de6a4571fa70071b4b940110a985f600460009054906101000a900461ffff1660405180806020018361ffff1681526020018281038252601c8152602001807f44617973207468652077696c6c2069732064656c6179656420627920000000008152506020019250505060405180910390a16103c4565b600160028111156102fb57fe5b600260149054906101000a900460ff16600281111561031657fe5b14156103c2577f5c859e9eb97e487693bfa6e5a10033407b04fac2f6df9088da45487724a13a72600260009054906101000a900473ffffffffffffffffffffffffffffffffffffffff1660405180806020018373ffffffffffffffffffffffffffffffffffffffff1673ffffffffffffffffffffffffffffffffffffffff1681526020018281038252602281526020018061094c602291396040019250505060405180910390a16103c3565b5b5b50505050610575806103d76000396000f3fe6080604052600436106100345760003560e01c80632b445d781461003957806344dc24ca14610043578063614619541461005a575b600080fd5b610041610064565b005b34801561004f57600080fd5b50610058610237565b005b610062610333565b005b600160009054906101000a900473ffffffffffffffffffffffffffffffffffffffff1673ffffffffffffffffffffffffffffffffffffffff163373ffffffffffffffffffffffffffffffffffffffff1614610127576040517f08c379a00000000000000000000000000000000000000000000000000000000081526004018080602001828103825260118152602001807f4e6f742074686520526563697069656e7400000000000000000000000000000081525060200191505060405180910390fd5b60001515600460029054906101000a900460ff161515146101b0576040517f08c379a00000000000000000000000000000000000000000000000000000000081526004018080602001828103825260168152602001807f57696c6c20686173206265656e2065786563757465640000000000000000000081525060200191505060405180910390fd5b600060028111156101bd57fe5b600260149054906101000a900460ff1660028111156101d857fe5b1415610235576000614a246201518042816101ef57fe5b04039050600460009054906101000a900461ffff1661ffff16811115610233576102176104d3565b6001600460026101000a81548160ff0219169083151502179055505b505b565b6000809054906101000a900473ffffffffffffffffffffffffffffffffffffffff1673ffffffffffffffffffffffffffffffffffffffff163373ffffffffffffffffffffffffffffffffffffffff16146102f9576040517f08c379a00000000000000000000000000000000000000000000000000000000081526004018080602001828103825260098152602001807f4e6f74204f776e6572000000000000000000000000000000000000000000000081525060200191505060405180910390fd5b6000809054906101000a900473ffffffffffffffffffffffffffffffffffffffff1673ffffffffffffffffffffffffffffffffffffffff16ff5b600260009054906101000a900473ffffffffffffffffffffffffffffffffffffffff1673ffffffffffffffffffffffffffffffffffffffff163373ffffffffffffffffffffffffffffffffffffffff16146103f6576040517f08c379a00000000000000000000000000000000000000000000000000000000081526004018080602001828103825260108152602001807f4e6f7420746865204578656375746f720000000000000000000000000000000081525060200191505060405180910390fd5b60001515600460029054906101000a900460ff1615151461047f576040517f08c379a00000000000000000000000000000000000000000000000000000000081526004018080602001828103825260168152602001807f57696c6c20686173206265656e2065786563757465640000000000000000000081525060200191505060405180910390fd5b6001600281111561048c57fe5b600260149054906101000a900460ff1660028111156104a757fe5b14156104d1576104b56104d3565b6001600460026101000a81548160ff0219169083151502179055505b565b600160009054906101000a900473ffffffffffffffffffffffffffffffffffffffff1673ffffffffffffffffffffffffffffffffffffffff166108fc6003549081150290604051600060405180830381858888f1935050505015801561053d573d6000803e3d6000fd5b5056fea265627a7a7231582082c9dbead8e003743a80109910b6ef9bcf67989f7c35138813dcdd7b823139bb64736f6c6343000510003241737369676e6564206578656375746f7220666f72207468652077696c6c20697320",
  "source": "// SPDX-License-Identifier: MIT\npragma solidity >=0.4.21 <0.9.0;\nimport \"./BaseTransaction.sol\";\n\ncontract SendEther is BaseTransaction {\n  address payable private recipient;\n  address private executor;\n  Conditions condition;\n  uint value;\n  uint16  private delayedDays; // unit: days since 2020, max = 65535 days\n  bool private isExercised; // set to true when the will is exercised\n\n  constructor (Conditions _cond,\n              address payable _recip,\n              address  _executor,\n              uint16 _delayLength) payable public {\n    isExercised = false;\n    condition = _cond;\n    recipient = _recip;\n    executor = _executor;\n    delayedDays = _delayLength;\n    value = msg.value;\n\n    emit AnnounceAddress(\"A will was created for \", recipient);\n    if (condition == Conditions.DELAYED_TRANSFER){\n      emit AnnounceNumber(\"Days the will is delayed by \", delayedDays);\n    } else if (condition == Conditions.COSIGNER_INITIATED){\n      emit AnnounceAddress(\"Assigned executor for the will is \", executor);\n    } else {\n      // currently not supported\n    }\n  }\n\n  modifier byRecipient() {\n    require(msg.sender == recipient, 'Not the Recipient');\n    _;\n  }\n\n  modifier byExecutor() {\n    require(msg.sender == executor, 'Not the Executor');\n    _;\n  }\n\n  function sendPayment() internal {\n    recipient.transfer(value);\n  }\n\n  function inherit() public payable byRecipient {\n    require(isExercised == false, 'Will has been executed');\n    if (condition == Conditions.DELAYED_TRANSFER) {\n      // find the differences in days, make sure the latest block's \n      // time stamp is greater than the delayed days\n      uint256 remainingDays = block.timestamp / 86400 - 18980;\n      if (remainingDays > delayedDays){\n        sendPayment();\n        isExercised = true;\n      }\n    }\n  }\n\n  function execute() public payable byExecutor {\n    require(isExercised == false, 'Will has been executed');\n    if (condition == Conditions.COSIGNER_INITIATED) {\n      sendPayment();\n      isExercised = true;\n    }\n  }\n}",
  "sourcePath": "/Users/williamhuang/Truffle_Projects/6883_Project/contracts/SendEther.sol",
  "compiler": {
    "name": "solc",
    "version": "0.5.16+commit.9c3226ce.Emscripten.clang"
  },
  "schemaVersion": "3.4.6",
  "updatedAt": "2022-04-17T04:56:36.915Z",
  "devdoc": {
    "methods": {}
  },
  "userdoc": {
    "methods": {}
  }
}