{
  "contractName": "Will",
  "abi": [
    {
      "inputs": [],
      "payable": false,
      "stateMutability": "nonpayable",
      "type": "constructor"
    },
    {
      "anonymous": false,
      "inputs": [
        {
          "indexed": true,
          "internalType": "address",
          "name": "_from",
          "type": "address"
        },
        {
          "indexed": false,
          "internalType": "string",
          "name": "_input",
          "type": "string"
        }
      ],
      "name": "distributed",
      "type": "event"
    },
    {
      "constant": true,
      "inputs": [
        {
          "internalType": "uint256",
          "name": "",
          "type": "uint256"
        }
      ],
      "name": "address_array",
      "outputs": [
        {
          "internalType": "address",
          "name": "",
          "type": "address"
        }
      ],
      "payable": false,
      "stateMutability": "view",
      "type": "function"
    },
    {
      "constant": true,
      "inputs": [
        {
          "internalType": "address",
          "name": "",
          "type": "address"
        }
      ],
      "name": "beneficiaries",
      "outputs": [
        {
          "internalType": "string",
          "name": "name",
          "type": "string"
        },
        {
          "internalType": "uint256",
          "name": "payout",
          "type": "uint256"
        },
        {
          "internalType": "address",
          "name": "ben_address",
          "type": "address"
        },
        {
          "internalType": "bool",
          "name": "isExercised",
          "type": "bool"
        }
      ],
      "payable": false,
      "stateMutability": "view",
      "type": "function"
    },
    {
      "constant": true,
      "inputs": [],
      "name": "delayedDays",
      "outputs": [
        {
          "internalType": "uint256",
          "name": "",
          "type": "uint256"
        }
      ],
      "payable": false,
      "stateMutability": "view",
      "type": "function"
    },
    {
      "constant": true,
      "inputs": [],
      "name": "executionType",
      "outputs": [
        {
          "internalType": "uint256",
          "name": "",
          "type": "uint256"
        }
      ],
      "payable": false,
      "stateMutability": "view",
      "type": "function"
    },
    {
      "constant": true,
      "inputs": [],
      "name": "executor",
      "outputs": [
        {
          "internalType": "address",
          "name": "",
          "type": "address"
        }
      ],
      "payable": false,
      "stateMutability": "view",
      "type": "function"
    },
    {
      "constant": true,
      "inputs": [],
      "name": "owner",
      "outputs": [
        {
          "internalType": "address payable",
          "name": "",
          "type": "address"
        }
      ],
      "payable": false,
      "stateMutability": "view",
      "type": "function"
    },
    {
      "constant": false,
      "inputs": [
        {
          "internalType": "string",
          "name": "name",
          "type": "string"
        },
        {
          "internalType": "address",
          "name": "ben_address",
          "type": "address"
        }
      ],
      "name": "addBeneficiary",
      "outputs": [],
      "payable": false,
      "stateMutability": "nonpayable",
      "type": "function"
    },
    {
      "constant": false,
      "inputs": [
        {
          "internalType": "address",
          "name": "ben_address",
          "type": "address"
        },
        {
          "internalType": "uint256",
          "name": "payout",
          "type": "uint256"
        }
      ],
      "name": "updatePayout",
      "outputs": [],
      "payable": false,
      "stateMutability": "nonpayable",
      "type": "function"
    },
    {
      "constant": false,
      "inputs": [
        {
          "internalType": "uint256",
          "name": "exceType",
          "type": "uint256"
        }
      ],
      "name": "updateExecutionType",
      "outputs": [],
      "payable": false,
      "stateMutability": "nonpayable",
      "type": "function"
    },
    {
      "constant": false,
      "inputs": [
        {
          "internalType": "address",
          "name": "executorAddress",
          "type": "address"
        }
      ],
      "name": "setExecutor",
      "outputs": [],
      "payable": false,
      "stateMutability": "nonpayable",
      "type": "function"
    },
    {
      "constant": false,
      "inputs": [
        {
          "internalType": "uint256",
          "name": "delayDuration",
          "type": "uint256"
        }
      ],
      "name": "setDate",
      "outputs": [],
      "payable": false,
      "stateMutability": "nonpayable",
      "type": "function"
    },
    {
      "constant": false,
      "inputs": [],
      "name": "claimWill",
      "outputs": [],
      "payable": false,
      "stateMutability": "nonpayable",
      "type": "function"
    },
    {
      "constant": false,
      "inputs": [],
      "name": "executeWill",
      "outputs": [],
      "payable": false,
      "stateMutability": "nonpayable",
      "type": "function"
    },
    {
      "constant": false,
      "inputs": [
        {
          "internalType": "address",
          "name": "ben_address",
          "type": "address"
        }
      ],
      "name": "executeWill",
      "outputs": [],
      "payable": true,
      "stateMutability": "payable",
      "type": "function"
    },
    {
      "constant": true,
      "inputs": [],
      "name": "getAddresses",
      "outputs": [
        {
          "internalType": "address[]",
          "name": "",
          "type": "address[]"
        }
      ],
      "payable": false,
      "stateMutability": "view",
      "type": "function"
    },
    {
      "constant": false,
      "inputs": [],
      "name": "resetContract",
      "outputs": [],
      "payable": false,
      "stateMutability": "nonpayable",
      "type": "function"
    },
    {
      "constant": false,
      "inputs": [],
      "name": "voidContract",
      "outputs": [],
      "payable": false,
      "stateMutability": "nonpayable",
      "type": "function"
    }
  ],
  "bytecode": "0x608060405234801561001057600080fd5b50336000806101000a81548173ffffffffffffffffffffffffffffffffffffffff021916908373ffffffffffffffffffffffffffffffffffffffff1602179055506112bb806100606000396000f3fe6080604052600436106100fe5760003560e01c80638da5cb5b11610095578063b181a8fc11610064578063b181a8fc1461055f578063c34c08e514610576578063d04e48f1146105cd578063e553970914610608578063e854d13514610663576100fe565b80638da5cb5b1461045a5780639ed30807146104b1578063a39fac12146104dc578063a5b8363514610548576100fe565b806344dc24ca116100d157806344dc24ca146103625780635e8d172a146103795780635fbc5248146103f457806373c523d81461042f576100fe565b8063015677391461010357806310d3bed0146102125780631c3c0ea8146102fa5780633641a7b71461034b575b600080fd5b34801561010f57600080fd5b506101526004803603602081101561012657600080fd5b81019080803573ffffffffffffffffffffffffffffffffffffffff1690602001909291905050506106a7565b60405180806020018581526020018473ffffffffffffffffffffffffffffffffffffffff1673ffffffffffffffffffffffffffffffffffffffff16815260200183151515158152602001828103825286818151815260200191508051906020019080838360005b838110156101d45780820151818401526020810190506101b9565b50505050905090810190601f1680156102015780820380516001836020036101000a031916815260200191505b509550505050505060405180910390f35b34801561021e57600080fd5b506102f86004803603604081101561023557600080fd5b810190808035906020019064010000000081111561025257600080fd5b82018360208201111561026457600080fd5b8035906020019184600183028401116401000000008311171561028657600080fd5b91908080601f016020809104026020016040519081016040528093929190818152602001838380828437600081840152601f19601f820116905080830192505050505050509192919290803573ffffffffffffffffffffffffffffffffffffffff16906020019092919050505061079c565b005b34801561030657600080fd5b506103496004803603602081101561031d57600080fd5b81019080803573ffffffffffffffffffffffffffffffffffffffff169060200190929190505050610976565b005b34801561035757600080fd5b50610360610a13565b005b34801561036e57600080fd5b50610377610b0c565b005b34801561038557600080fd5b506103b26004803603602081101561039c57600080fd5b8101908080359060200190929190505050610b9f565b604051808273ffffffffffffffffffffffffffffffffffffffff1673ffffffffffffffffffffffffffffffffffffffff16815260200191505060405180910390f35b34801561040057600080fd5b5061042d6004803603602081101561041757600080fd5b8101908080359060200190929190505050610bdb565b005b34801561043b57600080fd5b50610444610c3e565b6040518082815260200191505060405180910390f35b34801561046657600080fd5b5061046f610c44565b604051808273ffffffffffffffffffffffffffffffffffffffff1673ffffffffffffffffffffffffffffffffffffffff16815260200191505060405180910390f35b3480156104bd57600080fd5b506104c6610c69565b6040518082815260200191505060405180910390f35b3480156104e857600080fd5b506104f1610c6f565b6040518080602001828103825283818151815260200191508051906020019060200280838360005b83811015610534578082015181840152602081019050610519565b505050509050019250505060405180910390f35b34801561055457600080fd5b5061055d610cfd565b005b34801561056b57600080fd5b50610574610ed4565b005b34801561058257600080fd5b5061058b610f3d565b604051808273ffffffffffffffffffffffffffffffffffffffff1673ffffffffffffffffffffffffffffffffffffffff16815260200191505060405180910390f35b3480156105d957600080fd5b50610606600480360360208110156105f057600080fd5b8101908080359060200190929190505050610f63565b005b34801561061457600080fd5b506106616004803603604081101561062b57600080fd5b81019080803573ffffffffffffffffffffffffffffffffffffffff16906020019092919080359060200190929190505050610fc6565b005b6106a56004803603602081101561067957600080fd5b81019080803573ffffffffffffffffffffffffffffffffffffffff169060200190929190505050611070565b005b6005602052806000526040600020600091509050806000018054600181600116156101000203166002900480601f0160208091040260200160405190810160405280929190818152602001828054600181600116156101000203166002900480156107535780601f1061072857610100808354040283529160200191610753565b820191906000526020600020905b81548152906001019060200180831161073657829003601f168201915b5050505050908060010154908060020160009054906101000a900473ffffffffffffffffffffffffffffffffffffffff16908060020160149054906101000a900460ff16905084565b6000809054906101000a900473ffffffffffffffffffffffffffffffffffffffff1673ffffffffffffffffffffffffffffffffffffffff163373ffffffffffffffffffffffffffffffffffffffff16146107f557600080fd5b6107fd611180565b6040518060800160405280848152602001600081526020018373ffffffffffffffffffffffffffffffffffffffff16815260200160001515815250905080600560008473ffffffffffffffffffffffffffffffffffffffff1673ffffffffffffffffffffffffffffffffffffffff16815260200190815260200160002060008201518160000190805190602001906108969291906111c0565b506020820151816001015560408201518160020160006101000a81548173ffffffffffffffffffffffffffffffffffffffff021916908373ffffffffffffffffffffffffffffffffffffffff16021790555060608201518160020160146101000a81548160ff02191690831515021790555090505060028290806001815401808255809150509060018203906000526020600020016000909192909190916101000a81548173ffffffffffffffffffffffffffffffffffffffff021916908373ffffffffffffffffffffffffffffffffffffffff16021790555050505050565b6000809054906101000a900473ffffffffffffffffffffffffffffffffffffffff1673ffffffffffffffffffffffffffffffffffffffff163373ffffffffffffffffffffffffffffffffffffffff16146109cf57600080fd5b80600160006101000a81548173ffffffffffffffffffffffffffffffffffffffff021916908373ffffffffffffffffffffffffffffffffffffffff16021790555050565b600060045414610a2257600080fd5b60001515600560003373ffffffffffffffffffffffffffffffffffffffff1673ffffffffffffffffffffffffffffffffffffffff16815260200190815260200160002060020160149054906101000a900460ff16151514610a8257600080fd5b3373ffffffffffffffffffffffffffffffffffffffff167fbcac88cefa7f4dce79a9c27827e7955dad512e04c6ca0d2c3b3bcc4eeecf3cb460405180806020018281038252601c8152602001807f62656e656669636961727920636c61696d6564207468652077696c6c0000000081525060200191505060405180910390a2610b0a336110d5565b565b6000809054906101000a900473ffffffffffffffffffffffffffffffffffffffff1673ffffffffffffffffffffffffffffffffffffffff163373ffffffffffffffffffffffffffffffffffffffff1614610b6557600080fd5b6000809054906101000a900473ffffffffffffffffffffffffffffffffffffffff1673ffffffffffffffffffffffffffffffffffffffff16ff5b60028181548110610bac57fe5b906000526020600020016000915054906101000a900473ffffffffffffffffffffffffffffffffffffffff1681565b6000809054906101000a900473ffffffffffffffffffffffffffffffffffffffff1673ffffffffffffffffffffffffffffffffffffffff163373ffffffffffffffffffffffffffffffffffffffff1614610c3457600080fd5b8060048190555050565b60035481565b6000809054906101000a900473ffffffffffffffffffffffffffffffffffffffff1681565b60045481565b60606002805480602002602001604051908101604052809291908181526020018280548015610cf357602002820191906000526020600020905b8160009054906101000a900473ffffffffffffffffffffffffffffffffffffffff1673ffffffffffffffffffffffffffffffffffffffff1681526020019060010190808311610ca9575b5050505050905090565b600160045414610d0c57600080fd5b600160009054906101000a900473ffffffffffffffffffffffffffffffffffffffff1673ffffffffffffffffffffffffffffffffffffffff163373ffffffffffffffffffffffffffffffffffffffff1614610d6657600080fd5b3373ffffffffffffffffffffffffffffffffffffffff167fbcac88cefa7f4dce79a9c27827e7955dad512e04c6ca0d2c3b3bcc4eeecf3cb460405180806020018281038252601a8152602001807f6578656375746f72206578656375746564207468652077696c6c00000000000081525060200191505060405180910390a260008090505b600280549050811015610ed1576005600060028381548110610e0957fe5b9060005260206000200160009054906101000a900473ffffffffffffffffffffffffffffffffffffffff1673ffffffffffffffffffffffffffffffffffffffff1673ffffffffffffffffffffffffffffffffffffffff16815260200190815260200160002060020160149054906101000a900460ff16610ec457610ec360028281548110610e9357fe5b9060005260206000200160009054906101000a900473ffffffffffffffffffffffffffffffffffffffff166110d5565b5b8080600101915050610deb565b50565b6000809054906101000a900473ffffffffffffffffffffffffffffffffffffffff1673ffffffffffffffffffffffffffffffffffffffff163373ffffffffffffffffffffffffffffffffffffffff1614610f2d57600080fd5b60026000610f3b9190611240565b565b600160009054906101000a900473ffffffffffffffffffffffffffffffffffffffff1681565b6000809054906101000a900473ffffffffffffffffffffffffffffffffffffffff1673ffffffffffffffffffffffffffffffffffffffff163373ffffffffffffffffffffffffffffffffffffffff1614610fbc57600080fd5b8060038190555050565b6000809054906101000a900473ffffffffffffffffffffffffffffffffffffffff1673ffffffffffffffffffffffffffffffffffffffff163373ffffffffffffffffffffffffffffffffffffffff161461101f57600080fd5b6000600560008473ffffffffffffffffffffffffffffffffffffffff1673ffffffffffffffffffffffffffffffffffffffff1681526020019081526020016000209050818160010181905550505050565b6000809054906101000a900473ffffffffffffffffffffffffffffffffffffffff1673ffffffffffffffffffffffffffffffffffffffff163373ffffffffffffffffffffffffffffffffffffffff16146110c957600080fd5b6110d2816110d5565b50565b60008190508073ffffffffffffffffffffffffffffffffffffffff166108fc479081150290604051600060405180830381858888f19350505050158015611120573d6000803e3d6000fd5b506001600560008473ffffffffffffffffffffffffffffffffffffffff1673ffffffffffffffffffffffffffffffffffffffff16815260200190815260200160002060020160146101000a81548160ff0219169083151502179055505050565b60405180608001604052806060815260200160008152602001600073ffffffffffffffffffffffffffffffffffffffff1681526020016000151581525090565b828054600181600116156101000203166002900490600052602060002090601f016020900481019282601f1061120157805160ff191683800117855561122f565b8280016001018555821561122f579182015b8281111561122e578251825591602001919060010190611213565b5b50905061123c9190611261565b5090565b508054600082559060005260206000209081019061125e9190611261565b50565b61128391905b8082111561127f576000816000905550600101611267565b5090565b9056fea265627a7a72315820f1f1bcb86ceefb3ec030df5257475190f487167bb4e5f5c3462324470ccb0c3a64736f6c63430005100032",
  "source": "pragma solidity >=0.4.22 <0.9.0;\n\ncontract Will {\n    struct Beneficiary {\n        string name;\n        uint payout;\n        address ben_address;\n        bool isExercised;\n    }\n\n    enum ExecutionTypes {\n        DELAYED,\n        EXECUTOR,\n        CUSTOM\n    }\n\n    address payable public owner;\n    address public executor;\n    address[] public address_array;\n    uint public delayedDays;\n    uint public executionType;\n    mapping(address => Beneficiary) public beneficiaries;\n\n    event distributed(address indexed _from, string _input);\n\n    constructor() public {\n        owner = msg.sender;\n    }\n\n    modifier restricted() {\n        require(msg.sender == owner);\n        _;\n    }\n    \n    function addBeneficiary(string memory name, address ben_address) public restricted {\n        Beneficiary memory newBeneficiary = Beneficiary({\n            name: name,\n            payout: 0,\n            ben_address: ben_address,\n            isExercised: false\n        });\n\n        beneficiaries[ben_address] = newBeneficiary;\n        address_array.push(ben_address);\n    }\n\n    function updatePayout(address ben_address, uint payout) public restricted {\n\n        Beneficiary storage ben_update = beneficiaries[ben_address];\n        ben_update.payout = payout;\n    }\n\n    function updateExecutionType(uint exceType) public restricted {\n        executionType = exceType;\n    }\n\n    function setExecutor(address executorAddress) public restricted {\n        executor = executorAddress;\n    }\n\n    function setDate(uint delayDuration) public restricted {\n        delayedDays = delayDuration;\n    }\n\n    function claimWill() public {\n        require(executionType == 0);\n        require(beneficiaries[msg.sender].isExercised == false);\n        emit distributed(msg.sender, \"beneficiary claimed the will\");\n\n        sendPayment(msg.sender);\n    }\n\n    function executeWill() public {\n        require(executionType == 1);\n        require(msg.sender == executor);\n        emit distributed(msg.sender, \"executor executed the will\");\n\n        for (uint i = 0; i < address_array.length; i++){\n            if (!beneficiaries[address_array[i]].isExercised){\n                sendPayment(address_array[i]);\n            }\n        }\n    }\n\n    function executeWill(address ben_address) public payable restricted {\n        // make sure the will hasn't been executed yet\n        // require(beneficiaries[ben_address].isExercised == false);\n        \n        // address payable ben_address_pay = address(uint160(ben_address));\n        // ben_address_pay.transfer(address(this).balance);\n        // beneficiaries[ben_address].isExercised = true;\n        sendPayment(ben_address);\n    }\n\n    function sendPayment(address ben_address) internal {  \n        address payable ben_address_pay = address(uint160(ben_address));\n        ben_address_pay.transfer(address(this).balance);\n        beneficiaries[ben_address].isExercised = true;\n    }\n\n    function getAddresses() public view returns (address[] memory) {\n        return address_array;\n    }\n\n    function resetContract() public restricted {\n        delete address_array;\n    }\n\n    function voidContract() public restricted {\n        // delete the contract and send remaining balance back to owner\n        selfdestruct(owner);\n    }\n}   ",
  "sourcePath": "/Users/williamhuang/Truffle_Projects/6883_Project/contracts/Will.sol",
  "compiler": {
    "name": "solc",
    "version": "0.5.16+commit.9c3226ce.Emscripten.clang"
  },
  "schemaVersion": "3.4.6",
  "updatedAt": "2022-05-11T04:36:07.148Z",
  "devdoc": {
    "methods": {}
  },
  "userdoc": {
    "methods": {}
  }
}