{
  "contractName": "Will",
  "abi": [
    {
      "inputs": [],
      "payable": false,
      "stateMutability": "nonpayable",
      "type": "constructor"
    },
    {
      "constant": true,
      "inputs": [
        {
          "internalType": "uint256",
          "name": "",
          "type": "uint256"
        }
      ],
      "name": "address_array",
      "outputs": [
        {
          "internalType": "address",
          "name": "",
          "type": "address"
        }
      ],
      "payable": false,
      "stateMutability": "view",
      "type": "function"
    },
    {
      "constant": true,
      "inputs": [
        {
          "internalType": "address",
          "name": "",
          "type": "address"
        }
      ],
      "name": "beneficiaries",
      "outputs": [
        {
          "internalType": "string",
          "name": "name",
          "type": "string"
        },
        {
          "internalType": "uint256",
          "name": "payout",
          "type": "uint256"
        },
        {
          "internalType": "address",
          "name": "ben_address",
          "type": "address"
        }
      ],
      "payable": false,
      "stateMutability": "view",
      "type": "function"
    },
    {
      "constant": true,
      "inputs": [],
      "name": "owner",
      "outputs": [
        {
          "internalType": "address",
          "name": "",
          "type": "address"
        }
      ],
      "payable": false,
      "stateMutability": "view",
      "type": "function"
    },
    {
      "constant": false,
      "inputs": [
        {
          "internalType": "string",
          "name": "name",
          "type": "string"
        },
        {
          "internalType": "address",
          "name": "ben_address",
          "type": "address"
        }
      ],
      "name": "addBeneficiary",
      "outputs": [],
      "payable": false,
      "stateMutability": "nonpayable",
      "type": "function"
    },
    {
      "constant": false,
      "inputs": [
        {
          "internalType": "address",
          "name": "ben_address",
          "type": "address"
        },
        {
          "internalType": "uint256",
          "name": "payout",
          "type": "uint256"
        }
      ],
      "name": "updatePayout",
      "outputs": [],
      "payable": false,
      "stateMutability": "nonpayable",
      "type": "function"
    },
    {
      "constant": false,
      "inputs": [
        {
          "internalType": "enum Will.ExecutionTypes",
          "name": "exceType",
          "type": "uint8"
        }
      ],
      "name": "updateExecutionType",
      "outputs": [],
      "payable": false,
      "stateMutability": "nonpayable",
      "type": "function"
    },
    {
      "constant": false,
      "inputs": [
        {
          "internalType": "address",
          "name": "ben_address",
          "type": "address"
        }
      ],
      "name": "executeWill",
      "outputs": [],
      "payable": true,
      "stateMutability": "payable",
      "type": "function"
    },
    {
      "constant": true,
      "inputs": [],
      "name": "getAddresses",
      "outputs": [
        {
          "internalType": "address[]",
          "name": "",
          "type": "address[]"
        }
      ],
      "payable": false,
      "stateMutability": "view",
      "type": "function"
    }
  ],
  "bytecode": "0x608060405234801561001057600080fd5b50336000806101000a81548173ffffffffffffffffffffffffffffffffffffffff021916908373ffffffffffffffffffffffffffffffffffffffff1602179055506000600360016101000a81548160ff021916908315150217905550610b268061007b6000396000f3fe60806040526004361061007b5760003560e01c8063a39fac121161004e578063a39fac121461033e578063b6df00fe146103aa578063e5539709146103e8578063e854d135146104435761007b565b8063015677391461008057806310d3bed0146101845780635e8d172a1461026c5780638da5cb5b146102e7575b600080fd5b34801561008c57600080fd5b506100cf600480360360208110156100a357600080fd5b81019080803573ffffffffffffffffffffffffffffffffffffffff169060200190929190505050610487565b60405180806020018481526020018373ffffffffffffffffffffffffffffffffffffffff1673ffffffffffffffffffffffffffffffffffffffff168152602001828103825285818151815260200191508051906020019080838360005b8381101561014757808201518184015260208101905061012c565b50505050905090810190601f1680156101745780820380516001836020036101000a031916815260200191505b5094505050505060405180910390f35b34801561019057600080fd5b5061026a600480360360408110156101a757600080fd5b81019080803590602001906401000000008111156101c457600080fd5b8201836020820111156101d657600080fd5b803590602001918460018302840111640100000000831117156101f857600080fd5b91908080601f016020809104026020016040519081016040528093929190818152602001838380828437600081840152601f19601f820116905080830192505050505050509192919290803573ffffffffffffffffffffffffffffffffffffffff169060200190929190505050610569565b005b34801561027857600080fd5b506102a56004803603602081101561028f57600080fd5b810190808035906020019092919050505061071a565b604051808273ffffffffffffffffffffffffffffffffffffffff1673ffffffffffffffffffffffffffffffffffffffff16815260200191505060405180910390f35b3480156102f357600080fd5b506102fc610756565b604051808273ffffffffffffffffffffffffffffffffffffffff1673ffffffffffffffffffffffffffffffffffffffff16815260200191505060405180910390f35b34801561034a57600080fd5b5061035361077b565b6040518080602001828103825283818151815260200191508051906020019060200280838360005b8381101561039657808201518184015260208101905061037b565b505050509050019250505060405180910390f35b3480156103b657600080fd5b506103e6600480360360208110156103cd57600080fd5b81019080803560ff169060200190929190505050610809565b005b3480156103f457600080fd5b506104416004803603604081101561040b57600080fd5b81019080803573ffffffffffffffffffffffffffffffffffffffff16906020019092919080359060200190929190505050610888565b005b6104856004803603602081101561045957600080fd5b81019080803573ffffffffffffffffffffffffffffffffffffffff169060200190929190505050610932565b005b6002602052806000526040600020600091509050806000018054600181600116156101000203166002900480601f0160208091040260200160405190810160405280929190818152602001828054600181600116156101000203166002900480156105335780601f1061050857610100808354040283529160200191610533565b820191906000526020600020905b81548152906001019060200180831161051657829003601f168201915b5050505050908060010154908060020160009054906101000a900473ffffffffffffffffffffffffffffffffffffffff16905083565b6000809054906101000a900473ffffffffffffffffffffffffffffffffffffffff1673ffffffffffffffffffffffffffffffffffffffff163373ffffffffffffffffffffffffffffffffffffffff16146105c257600080fd5b6105ca610a15565b6040518060600160405280848152602001600081526020018373ffffffffffffffffffffffffffffffffffffffff16815250905080600260008473ffffffffffffffffffffffffffffffffffffffff1673ffffffffffffffffffffffffffffffffffffffff168152602001908152602001600020600082015181600001908051906020019061065a929190610a4c565b506020820151816001015560408201518160020160006101000a81548173ffffffffffffffffffffffffffffffffffffffff021916908373ffffffffffffffffffffffffffffffffffffffff16021790555090505060018290806001815401808255809150509060018203906000526020600020016000909192909190916101000a81548173ffffffffffffffffffffffffffffffffffffffff021916908373ffffffffffffffffffffffffffffffffffffffff16021790555050505050565b6001818154811061072757fe5b906000526020600020016000915054906101000a900473ffffffffffffffffffffffffffffffffffffffff1681565b6000809054906101000a900473ffffffffffffffffffffffffffffffffffffffff1681565b606060018054806020026020016040519081016040528092919081815260200182805480156107ff57602002820191906000526020600020905b8160009054906101000a900473ffffffffffffffffffffffffffffffffffffffff1673ffffffffffffffffffffffffffffffffffffffff16815260200190600101908083116107b5575b5050505050905090565b6000809054906101000a900473ffffffffffffffffffffffffffffffffffffffff1673ffffffffffffffffffffffffffffffffffffffff163373ffffffffffffffffffffffffffffffffffffffff161461086257600080fd5b80600360006101000a81548160ff0219169083600281111561088057fe5b021790555050565b6000809054906101000a900473ffffffffffffffffffffffffffffffffffffffff1673ffffffffffffffffffffffffffffffffffffffff163373ffffffffffffffffffffffffffffffffffffffff16146108e157600080fd5b6000600260008473ffffffffffffffffffffffffffffffffffffffff1673ffffffffffffffffffffffffffffffffffffffff1681526020019081526020016000209050818160010181905550505050565b6000809054906101000a900473ffffffffffffffffffffffffffffffffffffffff1673ffffffffffffffffffffffffffffffffffffffff163373ffffffffffffffffffffffffffffffffffffffff161480156109a1575060001515600360019054906101000a900460ff161515145b6109aa57600080fd5b6001600360016101000a81548160ff02191690831515021790555060008190508073ffffffffffffffffffffffffffffffffffffffff166108fc479081150290604051600060405180830381858888f19350505050158015610a10573d6000803e3d6000fd5b505050565b60405180606001604052806060815260200160008152602001600073ffffffffffffffffffffffffffffffffffffffff1681525090565b828054600181600116156101000203166002900490600052602060002090601f016020900481019282601f10610a8d57805160ff1916838001178555610abb565b82800160010185558215610abb579182015b82811115610aba578251825591602001919060010190610a9f565b5b509050610ac89190610acc565b5090565b610aee91905b80821115610aea576000816000905550600101610ad2565b5090565b9056fea265627a7a72315820682de388960057e52b77f69231fccaeda4b0ac2bd38def441d1c4a2860e95b2d64736f6c63430005100032",
  "source": "pragma solidity >=0.4.22 <0.9.0;\n\ncontract Will {\n    struct Beneficiary {\n        string name;\n        uint payout;\n        address ben_address;\n    }\n\n    enum ExecutionTypes {\n        DELAYED,\n        EXECUTOR,\n        CUSTOM\n    }\n\n    address public owner;\n    address[] public address_array;\n    mapping(address => Beneficiary) public beneficiaries;\n    ExecutionTypes executionType;\n    bool isExercised;\n\n    constructor() public {\n        owner = msg.sender;\n        isExercised = false;\n        //msg.data, msg.sender, msg.value. msg.gas are options\n    }\n\n    modifier restricted() {\n        require(msg.sender == owner);\n        _;\n    }\n\n    modifier restrictedWill() {\n        require(msg.sender == owner && isExercised == false);\n        _;\n    }\n    \n    function addBeneficiary(string memory name, address ben_address) public restricted {\n        Beneficiary memory newBeneficiary = Beneficiary({\n            name: name,\n            payout: 0,\n            ben_address: ben_address\n        });\n\n        beneficiaries[ben_address] = newBeneficiary;\n        address_array.push(ben_address);\n    }\n\n    function updatePayout(address ben_address, uint payout) public restricted {\n\n        Beneficiary storage ben_update = beneficiaries[ben_address];\n        ben_update.payout = payout;\n    }\n\n    function updateExecutionType(ExecutionTypes exceType) public restricted {\n        executionType = exceType;\n    }\n\n    function executeWill(address ben_address) public payable restrictedWill {\n        isExercised = true;\n\n        address payable ben_address_pay = address(uint160(ben_address));\n        // Beneficiary storage cur_ben = beneficiaries[ben_address];\n        ben_address_pay.transfer(address(this).balance);\n    }\n\n    function getAddresses() public view returns (address[] memory) {\n        return address_array;\n    }\n\n}   ",
  "sourcePath": "/Users/williamhuang/Truffle_Projects/6883_Project/contracts/Will.sol",
  "compiler": {
    "name": "solc",
    "version": "0.5.16+commit.9c3226ce.Emscripten.clang"
  },
  "schemaVersion": "3.4.6",
  "updatedAt": "2022-05-03T20:37:08.509Z",
  "devdoc": {
    "methods": {}
  },
  "userdoc": {
    "methods": {}
  }
}