{
  "contractName": "Will",
  "abi": [
    {
      "inputs": [],
      "payable": false,
      "stateMutability": "nonpayable",
      "type": "constructor"
    },
    {
      "constant": true,
      "inputs": [
        {
          "internalType": "uint256",
          "name": "",
          "type": "uint256"
        }
      ],
      "name": "address_array",
      "outputs": [
        {
          "internalType": "address",
          "name": "",
          "type": "address"
        }
      ],
      "payable": false,
      "stateMutability": "view",
      "type": "function"
    },
    {
      "constant": true,
      "inputs": [
        {
          "internalType": "address",
          "name": "",
          "type": "address"
        }
      ],
      "name": "beneficiaries",
      "outputs": [
        {
          "internalType": "string",
          "name": "name",
          "type": "string"
        },
        {
          "internalType": "uint256",
          "name": "payout",
          "type": "uint256"
        },
        {
          "internalType": "address",
          "name": "ben_address",
          "type": "address"
        },
        {
          "internalType": "bool",
          "name": "isExercised",
          "type": "bool"
        }
      ],
      "payable": false,
      "stateMutability": "view",
      "type": "function"
    },
    {
      "constant": true,
      "inputs": [],
      "name": "delayedDays",
      "outputs": [
        {
          "internalType": "uint256",
          "name": "",
          "type": "uint256"
        }
      ],
      "payable": false,
      "stateMutability": "view",
      "type": "function"
    },
    {
      "constant": true,
      "inputs": [],
      "name": "executor",
      "outputs": [
        {
          "internalType": "address",
          "name": "",
          "type": "address"
        }
      ],
      "payable": false,
      "stateMutability": "view",
      "type": "function"
    },
    {
      "constant": true,
      "inputs": [],
      "name": "owner",
      "outputs": [
        {
          "internalType": "address payable",
          "name": "",
          "type": "address"
        }
      ],
      "payable": false,
      "stateMutability": "view",
      "type": "function"
    },
    {
      "constant": false,
      "inputs": [
        {
          "internalType": "string",
          "name": "name",
          "type": "string"
        },
        {
          "internalType": "address",
          "name": "ben_address",
          "type": "address"
        }
      ],
      "name": "addBeneficiary",
      "outputs": [],
      "payable": false,
      "stateMutability": "nonpayable",
      "type": "function"
    },
    {
      "constant": false,
      "inputs": [
        {
          "internalType": "address",
          "name": "ben_address",
          "type": "address"
        },
        {
          "internalType": "uint256",
          "name": "payout",
          "type": "uint256"
        }
      ],
      "name": "updatePayout",
      "outputs": [],
      "payable": false,
      "stateMutability": "nonpayable",
      "type": "function"
    },
    {
      "constant": false,
      "inputs": [
        {
          "internalType": "uint256",
          "name": "exceType",
          "type": "uint256"
        }
      ],
      "name": "updateExecutionType",
      "outputs": [],
      "payable": false,
      "stateMutability": "nonpayable",
      "type": "function"
    },
    {
      "constant": false,
      "inputs": [
        {
          "internalType": "address",
          "name": "executorAddress",
          "type": "address"
        }
      ],
      "name": "setExecutor",
      "outputs": [],
      "payable": false,
      "stateMutability": "nonpayable",
      "type": "function"
    },
    {
      "constant": false,
      "inputs": [
        {
          "internalType": "uint256",
          "name": "delayDuration",
          "type": "uint256"
        }
      ],
      "name": "setDate",
      "outputs": [],
      "payable": false,
      "stateMutability": "nonpayable",
      "type": "function"
    },
    {
      "constant": false,
      "inputs": [],
      "name": "claimWill",
      "outputs": [],
      "payable": false,
      "stateMutability": "nonpayable",
      "type": "function"
    },
    {
      "constant": false,
      "inputs": [],
      "name": "executeWill",
      "outputs": [],
      "payable": false,
      "stateMutability": "nonpayable",
      "type": "function"
    },
    {
      "constant": false,
      "inputs": [
        {
          "internalType": "address",
          "name": "ben_address",
          "type": "address"
        }
      ],
      "name": "executeWill",
      "outputs": [],
      "payable": true,
      "stateMutability": "payable",
      "type": "function"
    },
    {
      "constant": true,
      "inputs": [],
      "name": "getAddresses",
      "outputs": [
        {
          "internalType": "address[]",
          "name": "",
          "type": "address[]"
        }
      ],
      "payable": false,
      "stateMutability": "view",
      "type": "function"
    },
    {
      "constant": false,
      "inputs": [],
      "name": "resetContract",
      "outputs": [],
      "payable": false,
      "stateMutability": "nonpayable",
      "type": "function"
    },
    {
      "constant": false,
      "inputs": [],
      "name": "voidContract",
      "outputs": [],
      "payable": false,
      "stateMutability": "nonpayable",
      "type": "function"
    }
  ],
  "bytecode": "0x608060405234801561001057600080fd5b50336000806101000a81548173ffffffffffffffffffffffffffffffffffffffff021916908373ffffffffffffffffffffffffffffffffffffffff1602179055506110f1806100606000396000f3fe6080604052600436106100f35760003560e01c80638da5cb5b1161008a578063c34c08e511610059578063c34c08e514610540578063d04e48f114610597578063e5539709146105d2578063e854d1351461062d576100f3565b80638da5cb5b1461044f578063a39fac12146104a6578063a5b8363514610512578063b181a8fc14610529576100f3565b806344dc24ca116100c657806344dc24ca146103575780635e8d172a1461036e5780635fbc5248146103e957806373c523d814610424576100f3565b806301567739146100f857806310d3bed0146102075780631c3c0ea8146102ef5780633641a7b714610340575b600080fd5b34801561010457600080fd5b506101476004803603602081101561011b57600080fd5b81019080803573ffffffffffffffffffffffffffffffffffffffff169060200190929190505050610671565b60405180806020018581526020018473ffffffffffffffffffffffffffffffffffffffff1673ffffffffffffffffffffffffffffffffffffffff16815260200183151515158152602001828103825286818151815260200191508051906020019080838360005b838110156101c95780820151818401526020810190506101ae565b50505050905090810190601f1680156101f65780820380516001836020036101000a031916815260200191505b509550505050505060405180910390f35b34801561021357600080fd5b506102ed6004803603604081101561022a57600080fd5b810190808035906020019064010000000081111561024757600080fd5b82018360208201111561025957600080fd5b8035906020019184600183028401116401000000008311171561027b57600080fd5b91908080601f016020809104026020016040519081016040528093929190818152602001838380828437600081840152601f19601f820116905080830192505050505050509192919290803573ffffffffffffffffffffffffffffffffffffffff169060200190929190505050610766565b005b3480156102fb57600080fd5b5061033e6004803603602081101561031257600080fd5b81019080803573ffffffffffffffffffffffffffffffffffffffff169060200190929190505050610940565b005b34801561034c57600080fd5b506103556109dd565b005b34801561036357600080fd5b5061036c610a57565b005b34801561037a57600080fd5b506103a76004803603602081101561039157600080fd5b8101908080359060200190929190505050610aea565b604051808273ffffffffffffffffffffffffffffffffffffffff1673ffffffffffffffffffffffffffffffffffffffff16815260200191505060405180910390f35b3480156103f557600080fd5b506104226004803603602081101561040c57600080fd5b8101908080359060200190929190505050610b26565b005b34801561043057600080fd5b50610439610b89565b6040518082815260200191505060405180910390f35b34801561045b57600080fd5b50610464610b8f565b604051808273ffffffffffffffffffffffffffffffffffffffff1673ffffffffffffffffffffffffffffffffffffffff16815260200191505060405180910390f35b3480156104b257600080fd5b506104bb610bb4565b6040518080602001828103825283818151815260200191508051906020019060200280838360005b838110156104fe5780820151818401526020810190506104e3565b505050509050019250505060405180910390f35b34801561051e57600080fd5b50610527610c42565b005b34801561053557600080fd5b5061053e610cb6565b005b34801561054c57600080fd5b50610555610d1f565b604051808273ffffffffffffffffffffffffffffffffffffffff1673ffffffffffffffffffffffffffffffffffffffff16815260200191505060405180910390f35b3480156105a357600080fd5b506105d0600480360360208110156105ba57600080fd5b8101908080359060200190929190505050610d45565b005b3480156105de57600080fd5b5061062b600480360360408110156105f557600080fd5b81019080803573ffffffffffffffffffffffffffffffffffffffff16906020019092919080359060200190929190505050610da8565b005b61066f6004803603602081101561064357600080fd5b81019080803573ffffffffffffffffffffffffffffffffffffffff169060200190929190505050610e52565b005b6005602052806000526040600020600091509050806000018054600181600116156101000203166002900480601f01602080910402602001604051908101604052809291908181526020018280546001816001161561010002031660029004801561071d5780601f106106f25761010080835404028352916020019161071d565b820191906000526020600020905b81548152906001019060200180831161070057829003601f168201915b5050505050908060010154908060020160009054906101000a900473ffffffffffffffffffffffffffffffffffffffff16908060020160149054906101000a900460ff16905084565b6000809054906101000a900473ffffffffffffffffffffffffffffffffffffffff1673ffffffffffffffffffffffffffffffffffffffff163373ffffffffffffffffffffffffffffffffffffffff16146107bf57600080fd5b6107c7610fb6565b6040518060800160405280848152602001600081526020018373ffffffffffffffffffffffffffffffffffffffff16815260200160001515815250905080600560008473ffffffffffffffffffffffffffffffffffffffff1673ffffffffffffffffffffffffffffffffffffffff1681526020019081526020016000206000820151816000019080519060200190610860929190610ff6565b506020820151816001015560408201518160020160006101000a81548173ffffffffffffffffffffffffffffffffffffffff021916908373ffffffffffffffffffffffffffffffffffffffff16021790555060608201518160020160146101000a81548160ff02191690831515021790555090505060028290806001815401808255809150509060018203906000526020600020016000909192909190916101000a81548173ffffffffffffffffffffffffffffffffffffffff021916908373ffffffffffffffffffffffffffffffffffffffff16021790555050505050565b6000809054906101000a900473ffffffffffffffffffffffffffffffffffffffff1673ffffffffffffffffffffffffffffffffffffffff163373ffffffffffffffffffffffffffffffffffffffff161461099957600080fd5b80600160006101000a81548173ffffffffffffffffffffffffffffffffffffffff021916908373ffffffffffffffffffffffffffffffffffffffff16021790555050565b6000600454146109ec57600080fd5b60001515600560003373ffffffffffffffffffffffffffffffffffffffff1673ffffffffffffffffffffffffffffffffffffffff16815260200190815260200160002060020160149054906101000a900460ff16151514610a4c57600080fd5b610a5533610e52565b565b6000809054906101000a900473ffffffffffffffffffffffffffffffffffffffff1673ffffffffffffffffffffffffffffffffffffffff163373ffffffffffffffffffffffffffffffffffffffff1614610ab057600080fd5b6000809054906101000a900473ffffffffffffffffffffffffffffffffffffffff1673ffffffffffffffffffffffffffffffffffffffff16ff5b60028181548110610af757fe5b906000526020600020016000915054906101000a900473ffffffffffffffffffffffffffffffffffffffff1681565b6000809054906101000a900473ffffffffffffffffffffffffffffffffffffffff1673ffffffffffffffffffffffffffffffffffffffff163373ffffffffffffffffffffffffffffffffffffffff1614610b7f57600080fd5b8060048190555050565b60035481565b6000809054906101000a900473ffffffffffffffffffffffffffffffffffffffff1681565b60606002805480602002602001604051908101604052809291908181526020018280548015610c3857602002820191906000526020600020905b8160009054906101000a900473ffffffffffffffffffffffffffffffffffffffff1673ffffffffffffffffffffffffffffffffffffffff1681526020019060010190808311610bee575b5050505050905090565b600160045414610c5157600080fd5b600160009054906101000a900473ffffffffffffffffffffffffffffffffffffffff1673ffffffffffffffffffffffffffffffffffffffff163373ffffffffffffffffffffffffffffffffffffffff1614610cab57600080fd5b610cb433610e52565b565b6000809054906101000a900473ffffffffffffffffffffffffffffffffffffffff1673ffffffffffffffffffffffffffffffffffffffff163373ffffffffffffffffffffffffffffffffffffffff1614610d0f57600080fd5b60026000610d1d9190611076565b565b600160009054906101000a900473ffffffffffffffffffffffffffffffffffffffff1681565b6000809054906101000a900473ffffffffffffffffffffffffffffffffffffffff1673ffffffffffffffffffffffffffffffffffffffff163373ffffffffffffffffffffffffffffffffffffffff1614610d9e57600080fd5b8060038190555050565b6000809054906101000a900473ffffffffffffffffffffffffffffffffffffffff1673ffffffffffffffffffffffffffffffffffffffff163373ffffffffffffffffffffffffffffffffffffffff1614610e0157600080fd5b6000600560008473ffffffffffffffffffffffffffffffffffffffff1673ffffffffffffffffffffffffffffffffffffffff1681526020019081526020016000209050818160010181905550505050565b6000809054906101000a900473ffffffffffffffffffffffffffffffffffffffff1673ffffffffffffffffffffffffffffffffffffffff163373ffffffffffffffffffffffffffffffffffffffff1614610eab57600080fd5b60001515600560008373ffffffffffffffffffffffffffffffffffffffff1673ffffffffffffffffffffffffffffffffffffffff16815260200190815260200160002060020160149054906101000a900460ff16151514610f0b57600080fd5b60008190508073ffffffffffffffffffffffffffffffffffffffff166108fc479081150290604051600060405180830381858888f19350505050158015610f56573d6000803e3d6000fd5b506001600560008473ffffffffffffffffffffffffffffffffffffffff1673ffffffffffffffffffffffffffffffffffffffff16815260200190815260200160002060020160146101000a81548160ff0219169083151502179055505050565b60405180608001604052806060815260200160008152602001600073ffffffffffffffffffffffffffffffffffffffff1681526020016000151581525090565b828054600181600116156101000203166002900490600052602060002090601f016020900481019282601f1061103757805160ff1916838001178555611065565b82800160010185558215611065579182015b82811115611064578251825591602001919060010190611049565b5b5090506110729190611097565b5090565b50805460008255906000526020600020908101906110949190611097565b50565b6110b991905b808211156110b557600081600090555060010161109d565b5090565b9056fea265627a7a723158209cb3570b69eb0e17ad6196783b331ced8726ccf18d0ded67d8b8cb3cc8f511e564736f6c63430005100032",
  "source": "pragma solidity >=0.4.22 <0.9.0;\r\n\r\ncontract Will {\r\n    struct Beneficiary {\r\n        string name;\r\n        uint payout;\r\n        address ben_address;\r\n        bool isExercised;\r\n    }\r\n\r\n    enum ExecutionTypes {\r\n        DELAYED,\r\n        EXECUTOR,\r\n        CUSTOM\r\n    }\r\n\r\n    address payable public owner;\r\n    address public executor;\r\n    address[] public address_array;\r\n    uint public delayedDays;\r\n    uint executionType;\r\n    mapping(address => Beneficiary) public beneficiaries;\r\n    // bool isExercised;\r\n\r\n    constructor() public {\r\n        owner = msg.sender;\r\n        // isExercised = false;\r\n        //msg.data, msg.sender, msg.value. msg.gas are options\r\n    }\r\n\r\n    modifier restricted() {\r\n        require(msg.sender == owner);\r\n        _;\r\n    }\r\n\r\n    // modifier restrictedWill() {\r\n    //     require(msg.sender == owner && isExercised == false);\r\n    //     _;\r\n    // }\r\n    \r\n    function addBeneficiary(string memory name, address ben_address) public restricted {\r\n        Beneficiary memory newBeneficiary = Beneficiary({\r\n            name: name,\r\n            payout: 0,\r\n            ben_address: ben_address,\r\n            isExercised: false\r\n        });\r\n\r\n        beneficiaries[ben_address] = newBeneficiary;\r\n        address_array.push(ben_address);\r\n    }\r\n\r\n    function updatePayout(address ben_address, uint payout) public restricted {\r\n\r\n        Beneficiary storage ben_update = beneficiaries[ben_address];\r\n        ben_update.payout = payout;\r\n    }\r\n\r\n    function updateExecutionType(uint exceType) public restricted {\r\n        executionType = exceType;\r\n    }\r\n\r\n    function setExecutor(address executorAddress) public restricted {\r\n        executor = executorAddress;\r\n    }\r\n\r\n    function setDate(uint delayDuration) public restricted {\r\n        delayedDays = delayDuration;\r\n    }\r\n\r\n    function claimWill() public {\r\n        require(executionType == 0);\r\n        require(beneficiaries[msg.sender].isExercised == false);\r\n        executeWill(msg.sender);\r\n    }\r\n\r\n    function executeWill() public {\r\n        require(executionType == 1);\r\n        require(msg.sender == executor);\r\n        executeWill(msg.sender);\r\n    }\r\n\r\n    function executeWill(address ben_address) public payable restricted {\r\n        // isExercised = true;\r\n        // make sure the will hasn't been executed yet\r\n        require(beneficiaries[ben_address].isExercised == false);\r\n        \r\n        address payable ben_address_pay = address(uint160(ben_address));\r\n        // Beneficiary storage cur_ben = beneficiaries[ben_address];\r\n        ben_address_pay.transfer(address(this).balance);\r\n        beneficiaries[ben_address].isExercised = true;\r\n    }\r\n\r\n    function getAddresses() public view returns (address[] memory) {\r\n        return address_array;\r\n    }\r\n\r\n    function resetContract() public restricted {\r\n        delete address_array;\r\n    }\r\n\r\n    function voidContract() public restricted {\r\n        // delete the contract and send remaining balance back to owner\r\n        selfdestruct(owner);\r\n    }\r\n}   ",
  "sourcePath": "C:\\Users\\zachm\\COMS6883\\6883_Project\\contracts\\Will.sol",
  "compiler": {
    "name": "solc",
    "version": "0.5.16+commit.9c3226ce.Emscripten.clang"
  },
  "schemaVersion": "3.4.7",
  "updatedAt": "2022-05-09T01:48:23.180Z",
  "devdoc": {
    "methods": {}
  },
  "userdoc": {
    "methods": {}
  }
}