{
  "contractName": "Will",
  "abi": [
    {
      "inputs": [],
      "stateMutability": "nonpayable",
      "type": "constructor"
    },
    {
      "inputs": [
        {
          "internalType": "uint256",
          "name": "",
          "type": "uint256"
        }
      ],
      "name": "address_array",
      "outputs": [
        {
          "internalType": "address",
          "name": "",
          "type": "address"
        }
      ],
      "stateMutability": "view",
      "type": "function"
    },
    {
      "inputs": [
        {
          "internalType": "address",
          "name": "",
          "type": "address"
        }
      ],
      "name": "beneficiaries",
      "outputs": [
        {
          "internalType": "string",
          "name": "name",
          "type": "string"
        },
        {
          "internalType": "uint256",
          "name": "payout",
          "type": "uint256"
        },
        {
          "internalType": "address",
          "name": "ben_address",
          "type": "address"
        }
      ],
      "stateMutability": "view",
      "type": "function"
    },
    {
      "inputs": [],
      "name": "owner",
      "outputs": [
        {
          "internalType": "address",
          "name": "",
          "type": "address"
        }
      ],
      "stateMutability": "view",
      "type": "function"
    },
    {
      "inputs": [
        {
          "internalType": "string",
          "name": "name",
          "type": "string"
        },
        {
          "internalType": "address",
          "name": "ben_address",
          "type": "address"
        }
      ],
      "name": "addBeneficiary",
      "outputs": [],
      "stateMutability": "nonpayable",
      "type": "function"
    },
    {
      "inputs": [
        {
          "internalType": "address",
          "name": "ben_address",
          "type": "address"
        },
        {
          "internalType": "uint256",
          "name": "payout",
          "type": "uint256"
        }
      ],
      "name": "updatePayout",
      "outputs": [],
      "stateMutability": "nonpayable",
      "type": "function"
    },
    {
      "inputs": [
        {
          "internalType": "address",
          "name": "ben_address",
          "type": "address"
        }
      ],
      "name": "executeWill",
      "outputs": [],
      "stateMutability": "payable",
      "type": "function"
    },
    {
      "inputs": [],
      "name": "getAddresses",
      "outputs": [
        {
          "internalType": "address[]",
          "name": "",
          "type": "address[]"
        }
      ],
      "stateMutability": "view",
      "type": "function"
    }
  ],
  "bytecode": "0x608060405234801561001057600080fd5b50336000806101000a81548173ffffffffffffffffffffffffffffffffffffffff021916908373ffffffffffffffffffffffffffffffffffffffff1602179055506000600360006101000a81548160ff021916908315150217905550610ccf8061007b6000396000f3fe6080604052600436106100705760003560e01c80638da5cb5b1161004e5780638da5cb5b1461011a578063a39fac1214610145578063e553970914610170578063e854d1351461019957610070565b8063015677391461007557806310d3bed0146100b45780635e8d172a146100dd575b600080fd5b34801561008157600080fd5b5061009c600480360381019061009791906107e8565b6101b5565b6040516100ab939291906108d6565b60405180910390f35b3480156100c057600080fd5b506100db60048036038101906100d69190610a49565b610287565b005b3480156100e957600080fd5b5061010460048036038101906100ff9190610ad1565b61042e565b6040516101119190610afe565b60405180910390f35b34801561012657600080fd5b5061012f61046d565b60405161013c9190610afe565b60405180910390f35b34801561015157600080fd5b5061015a610491565b6040516101679190610bd7565b60405180910390f35b34801561017c57600080fd5b5061019760048036038101906101929190610bf9565b61051f565b005b6101b360048036038101906101ae91906107e8565b6105c8565b005b60026020528060005260406000206000915090508060000180546101d890610c68565b80601f016020809104026020016040519081016040528092919081815260200182805461020490610c68565b80156102515780601f1061022657610100808354040283529160200191610251565b820191906000526020600020905b81548152906001019060200180831161023457829003601f168201915b5050505050908060010154908060020160009054906101000a900473ffffffffffffffffffffffffffffffffffffffff16905083565b60008054906101000a900473ffffffffffffffffffffffffffffffffffffffff1673ffffffffffffffffffffffffffffffffffffffff163373ffffffffffffffffffffffffffffffffffffffff16146102df57600080fd5b60006040518060600160405280848152602001600081526020018373ffffffffffffffffffffffffffffffffffffffff16815250905080600260008473ffffffffffffffffffffffffffffffffffffffff1673ffffffffffffffffffffffffffffffffffffffff16815260200190815260200160002060008201518160000190805190602001906103719291906106d3565b506020820151816001015560408201518160020160006101000a81548173ffffffffffffffffffffffffffffffffffffffff021916908373ffffffffffffffffffffffffffffffffffffffff1602179055509050506001829080600181540180825580915050600190039060005260206000200160009091909190916101000a81548173ffffffffffffffffffffffffffffffffffffffff021916908373ffffffffffffffffffffffffffffffffffffffff160217905550505050565b6001818154811061043e57600080fd5b906000526020600020016000915054906101000a900473ffffffffffffffffffffffffffffffffffffffff1681565b60008054906101000a900473ffffffffffffffffffffffffffffffffffffffff1681565b6060600180548060200260200160405190810160405280929190818152602001828054801561051557602002820191906000526020600020905b8160009054906101000a900473ffffffffffffffffffffffffffffffffffffffff1673ffffffffffffffffffffffffffffffffffffffff16815260200190600101908083116104cb575b5050505050905090565b60008054906101000a900473ffffffffffffffffffffffffffffffffffffffff1673ffffffffffffffffffffffffffffffffffffffff163373ffffffffffffffffffffffffffffffffffffffff161461057757600080fd5b6000600260008473ffffffffffffffffffffffffffffffffffffffff1673ffffffffffffffffffffffffffffffffffffffff1681526020019081526020016000209050818160010181905550505050565b60008054906101000a900473ffffffffffffffffffffffffffffffffffffffff1673ffffffffffffffffffffffffffffffffffffffff163373ffffffffffffffffffffffffffffffffffffffff16148015610636575060001515600360009054906101000a900460ff161515145b61063f57600080fd5b60008190506000600260008473ffffffffffffffffffffffffffffffffffffffff1673ffffffffffffffffffffffffffffffffffffffff16815260200190815260200160002090508173ffffffffffffffffffffffffffffffffffffffff166108fc479081150290604051600060405180830381858888f193505050501580156106cd573d6000803e3d6000fd5b50505050565b8280546106df90610c68565b90600052602060002090601f0160209004810192826107015760008555610748565b82601f1061071a57805160ff1916838001178555610748565b82800160010185558215610748579182015b8281111561074757825182559160200191906001019061072c565b5b5090506107559190610759565b5090565b5b8082111561077257600081600090555060010161075a565b5090565b6000604051905090565b600080fd5b600080fd5b600073ffffffffffffffffffffffffffffffffffffffff82169050919050565b60006107b58261078a565b9050919050565b6107c5816107aa565b81146107d057600080fd5b50565b6000813590506107e2816107bc565b92915050565b6000602082840312156107fe576107fd610780565b5b600061080c848285016107d3565b91505092915050565b600081519050919050565b600082825260208201905092915050565b60005b8381101561084f578082015181840152602081019050610834565b8381111561085e576000848401525b50505050565b6000601f19601f8301169050919050565b600061088082610815565b61088a8185610820565b935061089a818560208601610831565b6108a381610864565b840191505092915050565b6000819050919050565b6108c1816108ae565b82525050565b6108d0816107aa565b82525050565b600060608201905081810360008301526108f08186610875565b90506108ff60208301856108b8565b61090c60408301846108c7565b949350505050565b600080fd5b600080fd5b7f4e487b7100000000000000000000000000000000000000000000000000000000600052604160045260246000fd5b61095682610864565b810181811067ffffffffffffffff821117156109755761097461091e565b5b80604052505050565b6000610988610776565b9050610994828261094d565b919050565b600067ffffffffffffffff8211156109b4576109b361091e565b5b6109bd82610864565b9050602081019050919050565b82818337600083830152505050565b60006109ec6109e784610999565b61097e565b905082815260208101848484011115610a0857610a07610919565b5b610a138482856109ca565b509392505050565b600082601f830112610a3057610a2f610914565b5b8135610a408482602086016109d9565b91505092915050565b60008060408385031215610a6057610a5f610780565b5b600083013567ffffffffffffffff811115610a7e57610a7d610785565b5b610a8a85828601610a1b565b9250506020610a9b858286016107d3565b9150509250929050565b610aae816108ae565b8114610ab957600080fd5b50565b600081359050610acb81610aa5565b92915050565b600060208284031215610ae757610ae6610780565b5b6000610af584828501610abc565b91505092915050565b6000602082019050610b1360008301846108c7565b92915050565b600081519050919050565b600082825260208201905092915050565b6000819050602082019050919050565b610b4e816107aa565b82525050565b6000610b608383610b45565b60208301905092915050565b6000602082019050919050565b6000610b8482610b19565b610b8e8185610b24565b9350610b9983610b35565b8060005b83811015610bca578151610bb18882610b54565b9750610bbc83610b6c565b925050600181019050610b9d565b5085935050505092915050565b60006020820190508181036000830152610bf18184610b79565b905092915050565b60008060408385031215610c1057610c0f610780565b5b6000610c1e858286016107d3565b9250506020610c2f85828601610abc565b9150509250929050565b7f4e487b7100000000000000000000000000000000000000000000000000000000600052602260045260246000fd5b60006002820490506001821680610c8057607f821691505b602082108103610c9357610c92610c39565b5b5091905056fea2646970667358221220273d074f4b10e5656cbf82af53ebd122427351b619c15bc903fc9e0d6a9498a664736f6c634300080d0033",
  "immutableReferences": {},
  "source": "pragma solidity >=0.4.22 <0.9.0;\r\n\r\ncontract Will {\r\n    struct Beneficiary {\r\n        string name;\r\n        uint payout;\r\n        address ben_address;\r\n    }\r\n\r\n    address public owner;\r\n    address[] public address_array;\r\n    mapping(address => Beneficiary) public beneficiaries;\r\n    bool isExercised;\r\n\r\n    constructor() public {\r\n        owner = msg.sender;\r\n        isExercised = false;\r\n        //msg.data, msg.sender, msg.value. msg.gas are options\r\n    }\r\n\r\n    modifier restricted() {\r\n        require(msg.sender == owner);\r\n        _;\r\n    }\r\n\r\n    modifier restrictedWill() {\r\n        require(msg.sender == owner && isExercised == false);\r\n        _;\r\n    }\r\n    \r\n    function addBeneficiary(string memory name, address ben_address) public restricted {\r\n        Beneficiary memory newBeneficiary = Beneficiary({\r\n            name: name,\r\n            payout: 0,\r\n            ben_address: ben_address\r\n        });\r\n\r\n        beneficiaries[ben_address] = newBeneficiary;\r\n        address_array.push(ben_address);\r\n    }\r\n\r\n    function updatePayout(address ben_address, uint payout) public restricted {\r\n\r\n        Beneficiary storage ben_update = beneficiaries[ben_address];\r\n        ben_update.payout = payout;\r\n    }\r\n\r\n    function executeWill(address ben_address) public payable restrictedWill {\r\n        //isExercised = true;\r\n\r\n        //address payable ben_address_pay = address(uint160(ben_address));\r\n        address payable ben_address_pay = payable(ben_address);\r\n        Beneficiary storage cur_ben = beneficiaries[ben_address];\r\n        ben_address_pay.transfer(address(this).balance);\r\n    }\r\n\r\n\r\n    function getAddresses() public view returns (address[] memory) {\r\n        return address_array;\r\n    }\r\n\r\n}   ",
  "sourcePath": "C:\\COMS6883\\Solidity_Project\\6883_Project\\contracts\\Will.sol",
  "compiler": {
    "name": "solc",
    "version": "0.8.13+commit.abaa5c0e.Emscripten.clang"
  },
  "schemaVersion": "3.4.6",
  "updatedAt": "2022-04-28T02:02:34.752Z",
  "devdoc": {
    "kind": "dev",
    "methods": {},
    "version": 1
  },
  "userdoc": {
    "kind": "user",
    "methods": {},
    "version": 1
  }
}